{
    "abi": [
        {
            "type": "function",
            "name": "increment",
            "inputs": [],
            "outputs": [],
            "stateMutability": "nonpayable"
        },
        {
            "type": "function",
            "name": "number",
            "inputs": [],
            "outputs": [
                {
                    "name": "",
                    "type": "uint256",
                    "internalType": "uint256"
                }
            ],
            "stateMutability": "view"
        },
        {
            "type": "function",
            "name": "setNumber",
            "inputs": [
                {
                    "name": "newNumber",
                    "type": "uint256",
                    "internalType": "uint256"
                }
            ],
            "outputs": [],
            "stateMutability": "nonpayable"
        }
    ],
    "bytecode": {
        "object": "0x6080604052348015600e575f5ffd5b5060ec8061001b5f395ff3fe6080604052348015600e575f5ffd5b5060043610603a575f3560e01c80633fb5c1cb14603e5780638381f58a14604f578063d09de08a146068575b5f5ffd5b604d6049366004607d565b5f55565b005b60565f5481565b60405190815260200160405180910390f35b604d5f805490806076836093565b9190505550565b5f60208284031215608c575f5ffd5b5035919050565b5f6001820160af57634e487b7160e01b5f52601160045260245ffd5b506001019056fea2646970667358221220fa49f4ce8b9cbd3848cd128350606f0eb84071d2b55cc5ed387ef5407001680e64736f6c634300081c0033",
        "linkReferences": {}
    },
    "methodIdentifiers": {
        "increment()": "d09de08a",
        "number()": "8381f58a",
        "setNumber(uint256)": "3fb5c1cb"
    },
    "id": 25
}